:100000000C945F000C9487000C9487000C945303AD
:100010000C9453030C9453030C9487000C948700A6
:100020000C9487000C9487000C9487000C94CD03EB
:100030000C9487000C9487000C9487000C94870024
:100040000C947E080C9487000C946E060C94A00609
:100050000C9487000C9487000C9487000C94870004
:100060000C9487000C948700000000080002010037
:100070000003040700000000000000000102040863
:100080001020408001020408102001020408102002
:10009000040404040404040402020202020203032E
:1000A0000303030300000000250028002B000000CC
:1000B0000000240027002A009000D0069A00112496
:1000C0001FBECFEFD8E0DEBFCDBF11E0A0E0B1E0B2
:1000D000E2EAF9E102C005900D92AA37B107D9F71B
:1000E00022E0AAE7B1E001C01D92AA3BB207E1F706
:1000F00010E0CCEBD0E004C02297FE010E94880AF9
:10010000C83BD107C9F70E946F080C94C40C0C942B
:100110000000DC01ED91FC910190F081E02D09944B
:100120006DE671E08FE991E00E9458088CE791E05C
:100130000C9489048FE991E00C94EA071F93CF9304
:10014000DF93C82FD92F11E0180F80E192E00E94B1
:100150002905892BA9F41C161D0694F4812F8C1BEC
:10016000853610F061E001C060E08DE00E94210A58
:10017000219761E070E080E090E00E94EB08E5CF1D
:1001800060E08DE00E94210A81E01C161D060CF43F
:1001900080E0DF91CF911F9108950F931F93CF932C
:1001A000DF9361E087E00E94210AC0E0D0E000E137
:1001B00017E22196C11584E0D80710F0C0E0D0E026
:1001C00060E070E083E00E946009BE01769567956B
:1001D0007695679586E00E94600960E070E086E0B1
:1001E0000E94600980E192E00E942905892B61F05C
:1001F00080E192E00E944205BC0180E192E00E9411
:10020000890000E117E2EECF0150110961E070E0D2
:1002100080E090E00E94EB081016110654F280E096
:10022000DF91CF911F910F91089583B7817F8460F3
:1002300083BF83B7816083BF83B7816083BF8895A5
:1002400083B78E7F83BF60E082E00E94E80960E0B0
:1002500082E00E94210A61E087E00E94E80960E0F4
:1002600087E00E94210A61E08DE00E94E80960E0D9
:100270008DE00E94210A66E070E08CE791E00E9428
:10028000230526E040E05BE460E070E080E192E07E
:100290000E940C0626E040E05BE460E070E080E154
:1002A00092E00E940C0668EE73E080E090E00E940D
:1002B000EB086AE071E080E192E00E945E070E9434
:1002C000CD00811103C081E08093A5016FE171E051
:1002D00080E192E00C945E07DF92EF92FF920F9321
:1002E0001F93CF93DF93CDB7DEB7A4970FB6F894E3
:1002F000DEBF0FBECDBF80E192E00E942905892BB1
:1003000011F481E046C088EE93E00E949E008111C6
:10031000F8CF80E192E00E9442058A30A1F78E0179
:100320000F5F1F4FD12C780188EE93E00E949E0052
:100330008111E7CF80E192E00E9442058A3029F4E2
:10034000F701ED0DF11D10820DC0F80181938F01B1
:1003500061E070E080E090E00E94EB08D394FFE160
:10036000DF12E2CF4D2D50E04F5F5F4FBE016F5D5A
:100370007F4F8FE791E00E949C026BE271E080E189
:1003800092E00E945107B70180E192E00E945E076F
:1003900080E0A4960FB6F894DEBF0FBECDBFDF910C
:1003A000CF911F910F91FF90EF90DF900895809172
:1003B000A50181110DC066E371E080E192E00E9429
:1003C0005E0768EE73E080E090E00E94EB08EFCFFC
:1003D00080E192E00E942905892B49F080E192E0BA
:1003E0000E944205BC0180E192E00E94890080E108
:1003F00092E00E942905892B09F44DC00E946C01EE
:1004000040E150E060917F0180E192E00E94CC07E2
:1004100060E280E192E00E94530740E150E0609189
:10042000800180E192E00E94CC0760E280E192E0EE
:100430000E94530740E150E06091810180E192E029
:100440000E94CC0760E280E192E00E94530740E105
:1004500050E06091820180E192E00E94D307809198
:100460007F018130C1F460918001772767FD70952D
:1004700083E00E94600960918101772767FD709594
:1004800085E00E94600960918201772767FD709581
:1004900086E00E94600980917A0190917B0101962B
:1004A00090937B0180937A01009711F461E004C07E
:1004B0008F3F9F4121F460E08DE00C94210A089564
:1004C000DC01FB018181807382958F709081990F8F
:1004D000990F890F8C9382818C7386958695918173
:1004E00020E1929F800D112411968C931197928197
:1004F000838120E4929F800D112412968C9308959D
:100500009FEB980F9A31B0F09FE9980F9A3110F451
:100510008754089590ED980F9A3010F48C5F0895E9
:100520008B3221F08F3221F48FE308958EE308950A
:100530008FEF0895892F08954F925F926F927F9267
:100540008F929F92AF92BF92CF92DF92EF92FF92E3
:100550000F931F93CF93DF93CDB7DEB727970FB6D7
:10056000F894DEBF0FBECDBF6C015A017B01A60E11
:10057000B71E00E010E080E090E03E0125E0620E52
:10058000711C4E01E8E08E0E911CEA14FB0429F068
:10059000F70141917F014D3329F478015C01009707
:1005A00081F565C09C012F5F3F4FE1E0F0E0EC0F6B
:1005B000FD1FE80FF91F40832430310501F5CE01FE
:1005C00001962C01F20180810E948002F201819348
:1005D0002F01E615F705B1F7BE016F5F7F4FC3012D
:1005E0000E946002F301D601A00FB11F81918D938B
:1005F000E815F905D9F70D5F1F4F20E030E0C9017C
:10060000C4CF843091054CF4E1E0F0E0EC0FFD1F25
:10061000E80FF91F10820196F4CFCE0101964C012C
:100620003E0195E0690E711CF40180810E948002F8
:10063000F40181934F01E615F705B1F7BE016F5F35
:100640007F4FCF010E946002D401F601E00FF11F3D
:1006500080E090E021E0A21AB1088C010E0D1F1D70
:100660008A159B0524F42D9121930196F6CFF6016E
:10067000E00FF11F1082C80127960FB6F894DEBF75
:100680000FBECDBFDF91CF911F910F91FF90EF90E3
:10069000DF90CF90BF90AF909F908F907F906F90A2
:1006A0005F904F9008951F920F920FB60F921124F2
:1006B0002F933F934F935F936F937F938F939F936A
:1006C000AF93BF93EF93FF93E091E801F091E901BD
:1006D000309709F451C0868DA685B785958581FF31
:1006E00004C08C91892329F447C08C91892309F097
:1006F00043C0A389B4899C918589809589238C9373
:10070000868997890197F1F7208D318DA685B78568
:10071000758558E040E0C9010197F1F7842F90E01A
:1007200095958795482F6C91672309F04068515043
:1007300091F7868D81FD40958091A70190E001960B
:100740008F7399272091A601281749F0A091A7013E
:10075000B0E0A855BE4F4C938093A70103C0868D8F
:100760008160868F828D938D0197F1F7A389B4897B
:100770008C919589892B8C93FF91EF91BF91AF91CB
:100780009F918F917F916F915F914F913F912F91A9
:100790000F900FBE0F901F9018951F920F920FB6DB
:1007A0000F9211242F933F934F935F936F937F93F7
:1007B0008F939F93AF93BF93EF93FF938091EB0140
:1007C00087FF05C010928500109284001AC0209106
:1007D000EB01332727FD30958091EA0190E028173F
:1007E00039077CF48091EB01992787FD9095FC01F6
:1007F000EE0FFF1FE80FF91FE451FE4F808186FDC9
:1008000015C08091EB018F5F8093EB012091EB018C
:10081000332727FD30958091EA0190E028173907AA
:10082000BCF48091EB018C305CF112C08091EB0143
:10083000992787FD9095FC01EE0FFF1FE80FF91F28
:10084000E451FE4F808160E08F730E94210AD9CF6E
:100850008091840090918500049680349C4918F41E
:1008600080E49CE905C08091840090918500049605
:1008700090938900809388008FEF8093EB0138C0BC
:1008800020918400309185008091EB01992787FDAC
:100890009095FC01EE0FFF1FE80FF91FE451FE4F8A
:1008A00081819281820F931F9093890080938800A9
:1008B0008091EB01992787FD9095FC01EE0FFF1FBA
:1008C000E80FF91FE451FE4F808186FF11C080912F
:1008D000EB01992787FD9095FC01EE0FFF1FE80FB4
:1008E000F91FE451FE4F808161E08F730E94210A5D
:1008F000FF91EF91BF91AF919F918F917F916F91F8
:100900005F914F913F912F910F900FBE0F901F90CD
:1009100018952091EA012C30A0F431E0320F309389
:10092000EA01FC012083822F90E0FC01EE0FFF1F03
:10093000E80FF91FE451FE4F88EB9BE0928381831F
:1009400008952FEFFC0120830895DF92EF92FF922C
:100950000F931F93CF93DF93EC01D62E7A01890179
:1009600088818C3008F066C061E08D2D0E94E80916
:100970008881A82FB0E0FD01EE0FFF1FEA0FFB1FDB
:10098000E451FE4F2D2D2F739081907C922B9083FC
:1009900060E272E06E197F0977FF02C06D5F7F4FE2
:1009A0007595679575956795698340E659E0401B95
:1009B000510B57FF02C04D5F5F4F559547955595B9
:1009C00047954A836CE00E94580A9CE0899FB001D9
:1009D000112420E030E0A901460F571FFA01EE0F65
:1009E000FF1FE40FF51FE451FE4F908196FD16C0E6
:1009F0002F5F3F4F2C30310571F781110FC01092DE
:100A0000800082E080938100109285001092840023
:100A1000B19A80916F00826080936F00888190E02E
:100A2000FC01EE0FFF1FE80FF91FE451FE4F80811C
:100A3000806480838881DF91CF911F910F91FF9017
:100A4000EF90DF90089520E639E040E252E00C9408
:100A5000A504FC01818D228D90E0805C9F4F821B5C
:100A600091098F7399270895FC01918D828D9817B4
:100A700031F0828DE80FF11D858D90E008958FEFA4
:100A80009FEF0895FC01918D828D981761F0828D02
:100A9000DF01A80FB11D5D968C91928D9F5F9F73B2
:100AA000928F90E008958FEF9FEF089586EC96E087
:100AB000892B49F080E090E0892B29F00E94C6063E
:100AC00081110C9400000895FC01848DDF01A80FB2
:100AD000B11DA35ABF4F2C91848D90E001968F7366
:100AE0009927848FA689B7892C93A089B1898C9185
:100AF00080648C93938D848D981306C00288F3894B
:100B0000E02D80818F7D80830895CF93DF93EC016A
:100B1000888D8823C9F0EA89FB89808185FD05C01D
:100B2000A889B9898C9186FD0FC00FB607FCF5CF57
:100B3000808185FFF2CFA889B9898C9185FFEDCF9F
:100B4000CE010E946405E7CFDF91CF910895CF9247
:100B5000DF92FF920F931F93CF93DF931F92CDB736
:100B6000DEB76C0181E0D60158968C9358975B965E
:100B70009C915B975C968C915C97981307C05096FC
:100B8000ED91FC915197808185FD2EC0F601038D7A
:100B900010E00F5F1F4F0F731127F02EF601848DA9
:100BA000F81211C00FB607FCF9CFD6015096ED919F
:100BB000FC915197808185FFF1CFC60169830E9426
:100BC00064056981EBCF838DE80FF11DE35AFF4F78
:100BD0006083D6015B960C935B975296ED91FC91E6
:100BE0005397808180620CC0D6015696ED91FC919E
:100BF000579760835096ED91FC9151978081806466
:100C0000808381E090E00F90DF91CF911F910F9151
:100C1000FF90DF90CF900895BF92CF92DF92EF9236
:100C2000FF92CF93DF93EC016A017B01B22EE8893A
:100C3000F98982E08083411581EE580761057105CD
:100C4000A1F060E079E08DE390E0A70196010E94B9
:100C5000640A215031094109510956954795379544
:100C60002795211580E1380798F0E889F9891082E5
:100C700060E874E88EE190E0A70196010E94640AA2
:100C800021503109410951095695479537952795C6
:100C9000EC85FD853083EE85FF852083188EEC89F9
:100CA000FD89B082EA89FB89808180618083EA893D
:100CB000FB89808188608083EA89FB8980818068E4
:100CC0008083EA89FB8980818F7D8083DF91CF914A
:100CD000FF90EF90DF90CF90BF9008951F920F92FA
:100CE0000FB60F9211242F938F939F93EF93FF933F
:100CF000E0912002F09121028081E0912602F091A2
:100D0000270282FD12C09081809129028F5F8F732C
:100D100020912A02821751F0E0912902F0E0E05F71
:100D2000FD4F958F8093290201C08081FF91EF9143
:100D30009F918F912F910F900FBE0F901F9018953C
:100D40001F920F920FB60F9211242F933F934F9340
:100D50005F936F937F938F939F93AF93BF93EF9323
:100D6000FF9380E192E00E946405FF91EF91BF91B3
:100D7000AF919F918F917F916F915F914F913F9133
:100D80002F910F900FBE0F901F90189580E192E069
:100D90000E94290521E0892B09F420E0822F089583
:100DA000109213021092120288EE93E0A0E0B0E0DD
:100DB0008093140290931502A0931602B093170229
:100DC0008FE591E0909311028093100285EC90E002
:100DD00090931D0280931C0284EC90E090931F027C
:100DE00080931E0280EC90E0909321028093200279
:100DF00081EC90E0909323028093220282EC90E0B9
:100E0000909325028093240286EC90E09093270231
:100E1000809326021092290210922A0210922B022D
:100E200010922C020895CF92DF92EF92FF920F93CF
:100E30001F93CF93DF937C016A01EB0100E010E088
:100E40000C151D0571F06991D701ED91FC91019090
:100E5000F081E02DC7010995892B19F00F5F1F4F15
:100E6000EFCFC801DF91CF911F910F91FF90EF90CD
:100E7000DF90CF9008956115710581F0DB010D9031
:100E80000020E9F7AD0141505109461B570BDC0129
:100E9000ED91FC910280F381E02D099480E090E0D7
:100EA00008950C943B07DC01ED91FC910190F081D9
:100EB000E02D09946BE671E00C943B070F931F93B0
:100EC000CF93DF93EC010E943B078C01CE010E947F
:100ED0005A07800F911FDF91CF911F910F910895B5
:100EE0008F929F92AF92BF92DF92EF92FF920F93F9
:100EF0001F93CF93DF93CDB7DEB7A1970FB6F894CA
:100F0000DEBF0FBECDBF7C01F42FD52ECB0119A2C1
:100F1000223008F42AE08E010F5D1F4F822E912CA3
:100F2000A12CB12C6F2F7D2DA50194010E94640A84
:100F3000F22FD32ECA01015011096A3014F4E0E3F4
:100F400001C0E7E3E60FD801EC93232B242B252BDC
:100F500049F7B801C7010E943B07A1960FB6F89464
:100F6000DEBF0FBECDBFDF91CF911F910F91FF90DC
:100F7000EF90DF90BF90AF909F908F9008952115D4
:100F8000310541F4DC01ED91FC910190F081E02DFF
:100F9000642F09940C9470079A01462F50E060E08A
:100FA00070E00C94BF070F931F93CF93DF93EC0176
:100FB0009A01462F50E060E070E00E94BF078C016C
:100FC000CE010E945A07800F911FDF91CF911F9190
:100FD0000F910895FC01808191810C94240BCF9393
:100FE000DF93EC0188819981009711F00E94240B16
:100FF000198218821D821C821B821A82DF91CF9176
:1010000008950F931F93CF93DF93EC018B016F5FD4
:101010007F4F888199810E94B30B009731F09983AB
:1010200088831B830A8381E001C080E0DF91CF9138
:101030001F910F910895CF93DF93EC0188819981DF
:10104000892B29F08A819B818617970760F4CE014E
:101050000E940108882341F08C819D81892B19F41D
:10106000E881F981108281E0DF91CF910895EF92BC
:10107000FF920F931F93CF93DF93EC017B018A01C3
:10108000BA010E941B08811104C0CE010E94EF0723
:1010900007C01D830C83B701888199810E94860C4B
:1010A000CE01DF91CF911F910F91FF90EF900895A6
:1010B000FC01118210821382128215821482611542
:1010C000710559F0FB0101900020E9F7AF01415093
:1010D0005109461B570B0C943708089508950E9438
:1010E00025090E946E080E941501C6E5D5E00E9400
:1010F000D7012097E1F30E945605F9CF1F920F9276
:101100000FB60F9211242F933F938F939F93AF931A
:10111000BF938091AE029091AF02A091B002B091C6
:10112000B1023091AD0223E0230F2D3720F4019658
:10113000A11DB11D05C026E8230F0296A11DB11DFA
:101140002093AD028093AE029093AF02A093B002C1
:10115000B093B1028091B2029091B302A091B40217
:10116000B091B5020196A11DB11D8093B20290937A
:10117000B302A093B402B093B502BF91AF919F9117
:101180008F913F912F910F900FBE0F901F90189548
:101190003FB7F8948091B2029091B302A091B4024B
:1011A000B091B50226B5A89B05C02F3F19F0019656
:1011B000A11DB11D3FBF6627782F892F9A2F620F7F
:1011C000711D811D911D42E0660F771F881F991FB9
:1011D0004A95D1F708958F929F92AF92BF92CF9286
:1011E000DF92EF92FF926B017C010E94C8084B01D5
:1011F0005C01C114D104E104F104F1F00E94570A2A
:101200000E94C808681979098A099B09683E7340D9
:101210008105910570F321E0C21AD108E108F108B7
:1012200088EE880E83E0981EA11CB11CC114D10465
:10123000E104F10429F7DDCFFF90EF90DF90CF902C
:10124000BF90AF909F908F900895789484B58260FE
:1012500084BD84B5816084BD85B5826085BD85B55A
:10126000816085BDEEE6F0E0808181608083E1E809
:10127000F0E0108280818260808380818160808341
:10128000E0E8F0E0808181608083E1EBF0E0808144
:1012900084608083E0EBF0E0808181608083EAE716
:1012A000F0E080818460808380818260808380819F
:1012B000816080838081806880831092C10008955E
:1012C0001F93CF93DF93182FEB0161E00E94E80991
:1012D000209711F460E004C0CF3FD10539F461E0FC
:1012E000812FDF91CF911F910C94210AE12FF0E023
:1012F000E859FF4FE491E330F9F048F4E130B9F0F8
:10130000E230A1F584B5806284BDC8BD34C0E73049
:10131000E9F0E83019F1E43049F58091800080620D
:1013200080938000D0938B00C0938A0024C084B542
:10133000806884BDC7BD1FC0809180008068809395
:101340008000D0938900C093880015C08091B000C0
:1013500080688093B000C093B3000DC08091B0004E
:1013600080628093B000C093B40005C0C038D1053E
:101370000CF0B5CFAFCFDF91CF911F91089583309F
:1013800081F028F4813099F08230A1F008958730FF
:10139000A9F08830B9F08430D1F4809180008F7D3D
:1013A00003C0809180008F7780938000089584B57A
:1013B0008F7702C084B58F7D84BD08958091B00081
:1013C0008F7703C08091B0008F7D8093B000089527
:1013D000CF93DF9390E0FC01E458FF4F2491FC0190
:1013E000E057FF4F8491882349F190E0880F991FBF
:1013F000FC01E255FF4FA591B4918C559F4FFC0124
:10140000C591D4919FB7611108C0F8948C91209533
:1014100082238C93888182230AC0623051F4F8942D
:101420008C91322F309583238C938881822B8883F3
:1014300004C0F8948C91822B8C939FBFDF91CF9145
:1014400008950F931F93CF93DF931F92CDB7DEB70D
:10145000282F30E0F901E859FF4F8491F901E45851
:10146000FF4F1491F901E057FF4F04910023C9F099
:10147000882321F069830E94BF096981E02FF0E091
:10148000EE0FFF1FEC55FF4FA591B4919FB7F89455
:101490008C91611103C01095812301C0812B8C9325
:1014A0009FBF0F90DF91CF911F910F9108950895E5
:1014B000991B79E004C0991F961708F0961B881FA6
:1014C0007A95C9F780950895A1E21A2EAA1BBB1B35
:1014D000FD010DC0AA1FBB1FEE1FFF1FA217B30700
:1014E000E407F50720F0A21BB30BE40BF50B661F16
:1014F000771F881F991F1A9469F7609570958095DA
:1015000090959B01AC01BD01CF010895EE0FFF1F27
:101510000590F491E02D0994CF93DF9382309105EB
:1015200010F482E090E0E091B802F091B90220E07E
:1015300030E0A0E0B0E0309739F1408151814817A8
:101540005907B8F04817590771F4828193811097B1
:1015500029F013969C938E9312972CC09093B90206
:101560008093B80227C02115310531F04217530787
:1015700018F0A901DB0101C0EF019A01BD01DF01F3
:101580000280F381E02DD7CF21153105F9F0281B1A
:10159000390B2430310580F48A819B8161157105F6
:1015A00021F0FB019383828304C09093B90280935E
:1015B000B802FE01329644C0FE01E20FF31F819390
:1015C000919322503109398328833AC02091B60281
:1015D0003091B702232B41F4209102013091030195
:1015E0003093B7022093B60220910001309101019F
:1015F0002115310541F42DB73EB7409104015091BA
:101600000501241B350BE091B602F091B702E217F9
:10161000F307A0F42E1B3F0B2817390778F0AC0115
:101620004E5F5F4F2417350748F04E0F5F1F5093F2
:10163000B7024093B6028193919302C0E0E0F0E0DC
:10164000CF01DF91CF910895CF93DF93009709F4F5
:1016500087C0FC01329713821282C091B802D091E8
:10166000B902209781F420813181280F391F8091A0
:10167000B6029091B7028217930779F5F093B702FB
:10168000E093B6026DC0DE0120E030E0AE17BF0788
:1016900050F412964D915C9113979D01411551059F
:1016A00009F1DA01F3CFB383A28340815181840F22
:1016B000951F8A179B0771F48D919C911197840F48
:1016C000951F02969183808312968D919C9113971A
:1016D000938382832115310529F4F093B902E093B5
:1016E000B8023EC0D9011396FC93EE9312974D9128
:1016F0005D91A40FB51FEA17FB0779F480819181F2
:10170000840F951F0296D90111969C938E93828126
:10171000938113969C938E931297E0E0F0E08A8178
:101720009B81009719F0FE01EC01F9CFCE010296E2
:1017300028813981820F931F2091B6023091B70220
:101740002817390769F4309729F41092B9021092DA
:10175000B80202C013821282D093B702C093B602BD
:10176000DF91CF910895A0E0B0E0E9EBFBE00C94AD
:10177000910CEC01CB01209719F40E948C0AB8C09F
:10178000FE01E60FF71F9E0122503109E217F30711
:1017900008F4ACC0D9010D911C91119706171707D9
:1017A000B8F00530110508F49FC0A8014450510954
:1017B0004617570708F498C002501109061B170B6B
:1017C000019311936D937C93CF010E94240B8CC0E5
:1017D0005B01A01AB10A4E01800E911EA091B802C1
:1017E000B091B902612C712C60E070E0109709F49F
:1017F00049C0A815B905C9F5ED90FC90119767018E
:1018000042E0C40ED11CCA14DB0478F147018A18E7
:101810009B08640142E0C40ED11C1296BC90129742
:101820001396AC91B5E0CB16D10440F0B282A383FD
:1018300091828082D9018D939C9309C00E5F1F4FC6
:101840000E0D1F1DF90111830083EB2DFA2F611579
:10185000710531F0DB011396FC93EE93129744C0AF
:10186000F093B902E093B8023FC06D917C9111975B
:101870006616770608F43B01BD0112960D90BC91E7
:10188000A02DB4CF6091B6027091B70268157905AA
:10189000E9F468167906D0F44091000150910101F5
:1018A0004115510541F44DB75EB760910401709147
:1018B0000501461B570BE417F507C0F4F093B70278
:1018C000E093B602F901918380830EC00E948C0AD6
:1018D0007C01009759F0A801BE010E947D0CCE0149
:1018E0000E94240BC70104C0CE0102C080E090E03A
:1018F000CDB7DEB7EEE00C94AD0CFB01DC0102C00D
:1019000001900D9241505040D8F70895FB01DC0141
:1019100001900D920020E1F708952F923F924F928F
:101920005F926F927F928F929F92AF92BF92CF926F
:10193000DF92EF92FF920F931F93CF93DF93CDB778
:10194000DEB7CA1BDB0B0FB6F894DEBF0FBECDBFF0
:1019500009942A88398848885F846E847D848C84C1
:101960009B84AA84B984C884DF80EE80FD800C81CA
:101970001B81AA81B981CE0FD11D0FB6F894DEBFAD
:101980000FBECDBFED01089510E0CCEBD0E004C058
:10199000FE010E94880A2296CE3BD107C9F7F8942F
:0219A000FFCF77
:1019A2000000BA02800001000000496E697469619A
:1019B2006C697A696E67206C696E6B2E2E2E004CF4
:1019C200696E6B2072656164792E00526563656988
:1019D2007665643A20004C696E6B206F66666C69AE
:1019E2006E652E20526573657420746F2073746166
:1019F2007274206F7665722E2E2E0000000000A7F2
:101A020005130729054205340585050D0A006E6197
:0A1A12006E00696E66006F766600D4
:00000001FF
