:100000000C9464000C948C000C948C000C9493045D
:100010000C9493040C9493040C948C000C948C001A
:100020000C948C000C948C000C948C000C94240682
:100030000C948C000C948C000C948C000C948C0010
:100040000C94250B0C948C000C9425080C945708E8
:100050000C948C000C948C000C948C000C948C00F0
:100060000C948C000C948C0000000008000201002D
:100070000003040700000000000000000102040863
:100080001020408001020408102001020408102002
:10009000040404040404040402020202020203032E
:1000A00003030303000000002300260029000000D2
:1000B0000000250028002B0000000000240027007D
:1000C0002A0095008708A20011241FBECFEFD8E0B8
:1000D000DEBFCDBF12E0A0E0B1E0EEEEFFE102C076
:1000E00005900D92AE36B107D9F723E0AEE6B2E047
:1000F00001C01D92A83CB207E1F710E0C6ECD0E0C9
:1001000004C02297FE010E949F0DC23CD107C9F78F
:100110000E94160B0C94EA0F0C940000DC01ED9188
:10012000FC910190F081E02D099420E04DE06CE01D
:1001300085E992E00E94660560E672E08EE892E052
:100140000C94770A8EE892E00E94090A85E992E011
:100150000C940D051F93CF93DF93C82FD92F11E077
:10016000180F85E992E00E943C04892BA9F41C1623
:100170001D0694F4812F8C1B853610F061E001C0C0
:1001800060E083E00E94D40C219761E070E080E0A1
:1001900090E00E949E0BE5CF60E083E00E94D40CCB
:1001A00081E01C161D060CF480E0DF91CF911F91B9
:1001B0000895CF93DF93CDB7DEB7A0970FB6F8942D
:1001C000DEBF0FBECDBF60E672E08EE892E00E9417
:1001D0008D0A85E992E00E943C04892BC1F065E913
:1001E00072E0CE0101960E94EF09BE016F5F7F4F62
:1001F0008EE892E00E94D10ACE0101960E94090A7F
:1002000061E070E080E090E00E949E0BE2CF20E091
:1002100030E04FE150E0BE016F5F7F4F8EE892E02B
:100220000E94EB0A4091920250919302BE016F5FCF
:100230007F4F8EE692E00E94F9026AE071E08EE163
:1002400093E00E9416096EE872E08EE193E00E944E
:10025000230980E0A0960FB6F894DEBF0FBECDBF95
:10026000DF91CF9108958091940281110DC065E1D5
:1002700071E08EE193E00E94350968EE73E080E062
:1002800090E00E949E0BEFCF8EE193E00E94E0068B
:10029000892B49F08EE193E00E94F906682F85E9E9
:1002A00092E00E94D10385E992E00E943C04892BF0
:1002B00009F44DC00E94D90040E150E060916E0207
:1002C0008EE193E00E94A30960E28EE193E00E9438
:1002D000180940E150E060916F028EE193E00E94C6
:1002E000A30960E28EE193E00E94180940E150E02A
:1002F000609170028EE193E00E94A30960E28EE1BA
:1003000093E00E94180940E150E0609171028EE193
:1003100093E00E94AA0980916E028130C1F460913D
:100320006F02772767FD709585E00E94130C60913E
:100330007002772767FD709586E00E94130C60912C
:100340007102772767FD709589E00E94130C88E0A1
:100350000E940A0D892B89F488E00E940A0D892BDE
:10036000D9F36AE371E08EE193E00E94350967E515
:1003700071E085E992E00C9416090895CF93DF931C
:10038000EC0162E671E08EE193E00E941609BE0185
:100390008EE193E00E943509BE0185E992E00E945A
:1003A000350980E197E20E94AA0081112CC085E9FD
:1003B00092E00E94B003C82F682F772767FD7095E1
:1003C0008EE193E00E948E00CF3421F0CE3611F002
:1003D000CE3339F785E992E00E943C04892B89F0FD
:1003E00085E992E00E94B003682F772767FD70953A
:1003F0008EE193E00E948E0080E197E20E94AA00C5
:10040000E9CF80E001C081E0DF91CF910895CF93E3
:10041000DF9361E082E00E94D40C80E197E20E94C9
:10042000AA008823B9F061EC71E08EE193E00E94AC
:10043000350981E01DC085E992E00E943C04892BCA
:1004400061F085E992E00E94B003BC018EE193E087
:100450000E948E00C0EDD7E0EECF219761E070E002
:1004600080E090E00E949E0B1C161D0624F380E0A5
:10047000DF91CF910895CF93DF930E94070282EF1F
:1004800091E00E94BE01C82FD0E02097A9F587EF28
:1004900091E00E94BE01C82FD0E0209769F583E06B
:1004A00092E00E94BE01C82FD0E0209729F580E29B
:1004B00092E00E94BE01C82FD0E02097E9F484E8C2
:1004C00091E00E94BE01C82FD0E02097A9F489EAEC
:1004D00091E00E94BE01C82FD0E0209769F486EB1E
:1004E00091E00E94BE01C82FD0E0209729F46AE075
:1004F00085E992E00E9418098C2FDF91CF91089531
:1005000060E08CE00E949B0C60E08CE00E94D40CC8
:1005100061E082E00E949B0C60E082E00E94D40CCB
:1005200061E083E00E949B0C60E083E00E94D40CB9
:1005300026E040E05BE460E070E08EE193E00E9442
:10054000C30740E855E260E070E085E992E00E9470
:10055000960568EE73E080E090E00E949E0B69E2F1
:1005600072E08EE193E00E9435090E943B02811106
:1005700003C081E0809394020895DC01FB01818136
:10058000807382958F709081990F990F890F8C934A
:1005900082818C7386958695918120E1929F800D52
:1005A000112411968C9311979281838120E4929F5C
:1005B000800D112412968C9308959FEB980F9A3119
:1005C000B0F09FE9980F9A3110F48754089590ED98
:1005D000980F9A3010F48C5F08958B3221F08F328F
:1005E00021F48FE308958EE308958FEF0895892F06
:1005F00008954F925F926F927F928F929F92AF92E7
:10060000BF92CF92DF92EF92FF920F931F93CF93FF
:10061000DF93CDB7DEB727970FB6F894DEBF0FBED6
:10062000CDBF6C015A017B01A60EB71E00E010E0A1
:1006300080E090E03E0125E0620E711C4E01E8E092
:100640008E0E911CEA14FB0429F0F70141917F0101
:100650004D3329F478015C01009781F565C09C0158
:100660002F5F3F4FE1E0F0E0EC0FFD1FE80FF91FB7
:1006700040832430310501F5CE0101962C01F201B1
:1006800080810E94DD02F20181932F01E615F705BA
:10069000B1F7BE016F5F7F4FC3010E94BD02F3013E
:1006A000D601A00FB11F81918D93E815F905D9F7F7
:1006B0000D5F1F4F20E030E0C901C4CF84309105A9
:1006C0004CF4E1E0F0E0EC0FFD1FE80FF91F1082A1
:1006D0000196F4CFCE0101964C013E0195E0690EE2
:1006E000711CF40180810E94DD02F40181934F01AD
:1006F000E615F705B1F7BE016F5F7F4FCF010E948E
:10070000BD02D401F601E00FF11F80E090E021E08E
:10071000A21AB1088C010E0D1F1D8A159B0524F429
:100720002D9121930196F6CFF601E00FF11F108273
:10073000C80127960FB6F894DEBF0FBECDBFDF917C
:10074000CF911F910F91FF90EF90DF90CF90BF90CE
:10075000AF909F908F907F906F905F904F90089593
:100760002091F6023091F70228173907B9F49091D9
:10077000B4028091B502981789F0E091B402F0E0DC
:10078000EA54FD4F80812091B40230E02F5F3F4F4B
:100790002F7333272093B40290E008958FEF9FEFDB
:1007A00008951F93CF93DF93DC015C968D919C910C
:1007B0005D97009749F481E090E013969C938E93A7
:1007C000129780E090E03BC05196ED91FC915297DA
:1007D00050962C915097322F30951FB75E964C91C2
:1007E0005E9741FB772770F941FD6095F894408151
:1007F000772311F0422B01C043234083EC01219762
:10080000F1F748E0508160FF02C0522B01C0532332
:100810005083EC012197F1F76695415099F780815B
:10082000772311F0832301C0822B80831FBF5C9646
:100830008D919C915D970197F1F781E090E0DF91B8
:10084000CF911F91089508952091F6023091F702FB
:100850002817390771F49091B4028091B502981766
:1008600041F0E091B402F0E0EA54FD4F808190E065
:1008700008958FEF9FEF08952091F6023091F702CF
:100880002817390771F48091B5022091B40290E0E5
:10089000805C9F4F821B910960E470E00E94340DE0
:1008A000089580E090E00895E091F602F091F7025B
:1008B000E817F90769F4A389B4899C918589809523
:1008C00089238C931092F7021092F60281E008952A
:1008D00080E00895CF93DF93EC018A8D9B8D892B67
:1008E000F1F08091F6029091F7028C179D07B9F014
:1008F000009711F00E9454048E8D8E7F8E8F10927F
:10090000B5021092B402D093F702C093F602EB89BD
:10091000FC8980819D89892B808381E001C080E0F2
:10092000DF91CF9108951F920F920FB60F9211246D
:100930002F933F934F935F936F937F938F939F93E7
:10094000AF93BF93EF93FF93E091F602F091F7021C
:10095000309709F451C0868DA685B785958581FFAE
:1009600004C08C91892329F447C08C91892309F014
:1009700043C0A389B4899C918589809589238C93F0
:10098000868997890197F1F7208D318DA685B785E6
:10099000758558E040E0C9010197F1F7842F90E098
:1009A00095958795482F6C91672309F040685150C1
:1009B00091F7868D81FD40958091B50290E001967A
:1009C0008F7399272091B402281749F0A091B5029E
:1009D000B0E0AA54BD4F4C938093B50203C0868DFE
:1009E0008160868F828D938D0197F1F7A389B489F9
:1009F0008C919589892B8C93FF91EF91BF91AF9149
:100A00009F918F917F916F915F914F913F912F9126
:100A10000F900FBE0F901F90189522E432E0FC015A
:100A2000318320830C9454041F93CF93DF93EC0104
:100A3000162F6E8D6695617081E06827812F0E9468
:100A4000D40C61E0812F0E949B0C812F90E0FC016F
:100A5000E458FF4FE491E88BFC01E057FF4FE4912D
:100A6000F0E0EE0FFF1FE255FF4F859194919A8BB6
:100A7000898BDF91CF911F9108951F93CF93DF93BF
:100A8000EC01162F60E0812F0E949B0C8E8D81FD62
:100A900004C061E0812F0E94D40C1C87812F90E05C
:100AA000FC01E458FF4FE491ED87FC01E057FF4F54
:100AB000E491F0E0EE0FFF1FEC55FF4F859194910C
:100AC0009F878E87DF91CF911F910895FF920F939B
:100AD0001F93CF93DF93EC01F62E522F1B821A82C5
:100AE00008EE13E020E030E00C831D832E833F836B
:100AF00082E492E0998388831F8A1E8A198E188E59
:100B00001B8E1A8E1D8E1C8E8E8D8E7F50FB81F952
:100B10008E8F642FCE010E9414056F2DCE01DF91C0
:100B2000CF911F910F91FF900C943D05CF93DF93D0
:100B3000EC019A01AB011B8E1A8E198E188E1F8A3A
:100B40001E8A60E079E08DE390E00E946A0DC901A1
:100B50002430310520F0B9016350710902C061E011
:100B600070E07D8F6C8FEC85E63108F068C0B901CC
:100B7000769567956431710518F06351710902C06B
:100B800061E070E07F8B6E8B069718F0C9010597C6
:100B900002C081E090E0998F888FC901880F991F6A
:100BA000820F931F96958795969587958D30910521
:100BB00010F00C9702C081E090E09B8F8A8F20910B
:100BC0006800E83050F091E0EE3008F490E081E009
:100BD00001C0880F9A95EAF701C084E0822B8093C8
:100BE00068002C85283038F02E3040F0263148F44B
:100BF0008CE690E008C08DE690E005C08BE690E0C2
:100C000002C080E090E09C8B8B8B283030F481E038
:100C100001C0880F2A95EAF70DC0822F90E02E3090
:100C200010F4089701C00E9791E001C0990F8A95C2
:100C3000EAF7892F8D8B8C8D9D8D0197F1F7CE0171
:100C4000DF91CF910C946A041F920F920FB60F920E
:100C500011242F933F934F935F936F937F938F93C1
:100C60009F93AF93BF93EF93FF938091F90287FF18
:100C700005C010928500109284001AC02091F902DC
:100C8000332727FD30958091F80290E02817390727
:100C90007CF48091F902992787FD9095FC01EE0F75
:100CA000FF1FE80FF91FE650FD4F808186FD15C03C
:100CB0008091F9028F5F8093F9022091F902332726
:100CC00027FD30958091F80290E028173907BCF491
:100CD0008091F9028C305CF112C08091F902992761
:100CE00087FD9095FC01EE0FFF1FE80FF91FE650FE
:100CF000FD4F808160E08F730E94D40CD9CF80912A
:100D0000840090918500049680349C4918F480E416
:100D10009CE905C080918400909185000496909391
:100D20008900809388008FEF8093F90238C020916A
:100D30008400309185008091F902992787FD909574
:100D4000FC01EE0FFF1FE80FF91FE650FD4F8181F8
:100D50009281820F931F90938900809388008091E5
:100D6000F902992787FD9095FC01EE0FFF1FE80F10
:100D7000F91FE650FD4F808186FF11C08091F90276
:100D8000992787FD9095FC01EE0FFF1FE80FF91FD3
:100D9000E650FD4F808161E08F730E94D40CFF917B
:100DA000EF91BF91AF919F918F917F916F915F91E3
:100DB0004F913F912F910F900FBE0F901F9018955C
:100DC000FC01818D228D90E0805C9F4F821B9109F8
:100DD0008F7399270895FC01918D828D981731F0BA
:100DE000828DE80FF11D858D90E008958FEF9FEFC4
:100DF0000895FC01918D828D981761F0828DDF013D
:100E0000A80FB11D5D968C91928D9F5F9F73928FFD
:100E100090E008958FEF9FEF08958DE798E0892B7C
:100E200049F080E090E0892B29F00E947D08811133
:100E30000C9400000895FC01848DDF01A80FB11D02
:100E4000A35ABF4F2C91848D90E001968F73992700
:100E5000848FA689B7892C93A089B1898C918064ED
:100E60008C93938D848D981306C00288F389E02DAE
:100E700080818F7D80830895CF93DF93EC01888DEF
:100E80008823C9F0EA89FB89808185FD05C0A8898E
:100E9000B9898C9186FD0FC00FB607FCF5CF808114
:100EA00085FFF2CFA889B9898C9185FFEDCFCE015E
:100EB0000E941B07E7CFDF91CF910895CF92DF9279
:100EC000FF920F931F93CF93DF931F92CDB7DEB79F
:100ED0006C0181E0D60158968C9358975B969C9153
:100EE0005B975C968C915C97981307C05096ED9138
:100EF000FC915197808185FD2EC0F601038D10E095
:100F00000F5F1F4F0F731127F02EF601848DF8121B
:100F100011C00FB607FCF9CFD6015096ED91FC91A8
:100F20005197808185FFF1CFC60169830E941B071D
:100F30006981EBCF838DE80FF11DE35AFF4F60838A
:100F4000D6015B960C935B975296ED91FC9153976B
:100F5000808180620CC0D6015696ED91FC91579726
:100F600060835096ED91FC915197808180648083DD
:100F700081E090E00F90DF91CF911F910F91FF9052
:100F8000DF90CF900895BF92CF92DF92EF92FF92C1
:100F9000CF93DF93EC016A017B01B22EE889F989D6
:100FA00082E08083411581EE580761057105A1F04B
:100FB00060E079E08DE390E0A70196010E94480D82
:100FC0002150310941095109569547953795279583
:100FD000211580E1380798F0E889F989108260E8E6
:100FE00074E88EE190E0A70196010E94480D21501F
:100FF0003109410951095695479537952795EC8553
:10100000FD853083EE85FF852083188EEC89FD8970
:10101000B082EA89FB89808180618083EA89FB89CB
:10102000808188608083EA89FB89808180688083F1
:10103000EA89FB8980818F7D8083DF91CF91FF904A
:10104000EF90DF90CF90BF9008951F920F920FB650
:101050000F9211242F938F939F93EF93FF93E0911F
:101060002E03F0912F038081E0913403F09135033A
:1010700082FD12C09081809137038F5F8F73209122
:101080003803821751F0E0913703F0E0E25EFC4F45
:10109000958F8093370301C08081FF91EF919F91DD
:1010A0008F912F910F900FBE0F901F9018951F9248
:1010B0000F920FB60F9211242F933F934F935F938C
:1010C0006F937F938F939F93AF93BF93EF93FF9310
:1010D0008EE193E00E941B07FF91EF91BF91AF91CA
:1010E0009F918F917F916F915F914F913F912F9140
:1010F0000F900FBE0F901F9018958EE193E00E9405
:10110000E00621E0892B09F420E0822F0895109257
:1011100021031092200388EE93E0A0E0B0E08093DA
:10112000220390932303A0932403B093250382E525
:1011300092E090931F0380931E0385EC90E09093C0
:101140002B0380932A0384EC90E090932D038093EB
:101150002C0380EC90E090932F0380932E0381EC7E
:1011600090E0909331038093300382EC90E0909371
:1011700033038093320386EC90E0909335038093A1
:1011800034031092370310923803109239031092EF
:101190003A030895CF92DF92EF92FF920F931F933D
:1011A000CF93DF937C016A01EB0100E010E00C15A6
:1011B0001D0571F06991D701ED91FC910190F081CD
:1011C000E02DC7010995892B19F00F5F1F4FEFCF55
:1011D000C801DF91CF911F910F91FF90EF90DF90A9
:1011E000CF9008956115710581F0DB010D9000200D
:1011F000E9F7AD0141505109461B570BDC01ED9158
:10120000FC910280F381E02D099480E090E0089544
:10121000DC01ED91FC91DB0114964D915C911597E9
:101220006D917C910280F381E02D09940C94F20879
:10123000DC01ED91FC910190F081E02D09946EE5C7
:1012400072E00C94F2080F931F93CF93DF93EC019D
:101250000E9408098C01CE010E941F09800F911F76
:10126000DF91CF911F910F9108950F931F93CF930B
:10127000DF93EC010E94F2088C01CE010E941F094D
:10128000800F911FDF91CF911F910F9108958F9241
:101290009F92AF92BF92DF92EF92FF920F931F93B4
:1012A000CF93DF93CDB7DEB7A1970FB6F894DEBF2B
:1012B0000FBECDBF7C01F42FD52ECB0119A2223059
:1012C00008F42AE08E010F5D1F4F822E912CA12C75
:1012D000B12C6F2F7D2DA50194010E94480DF22F96
:1012E000D32ECA01015011096A3014F4E0E301C0A1
:1012F000E7E3E60FD801EC93232B242B252B49F7AA
:10130000B801C7010E94F208A1960FB6F894DEBF9B
:101310000FBECDBFDF91CF911F910F91FF90EF9046
:10132000DF90BF90AF909F908F9008952115310569
:1013300041F4DC01ED91FC910190F081E02D642FEE
:1013400009940C9447099A01462F50E060E070E040
:101350000C9496090F931F93CF93DF93EC019A019E
:10136000462F50E060E070E00E9496098C01CE01AB
:101370000E941F09800F911FDF91CF911F910F9144
:1013800008950F931F93CF93DF93EC010E946F0B8F
:10139000688779878A879B87E881F9810680F7814A
:1013A000E02DCE01099597FF15C00E946F0B0885AF
:1013B00019852A853B85601B710B820B930B0C8171
:1013C0001D812E813F81601771078207930720F3EB
:1013D0008FEF9FEFDF91CF911F910F9108950F93A2
:1013E0001F93CF93DF93EC018B0160E672E00E94C4
:1013F000770AC8010E94C10997FD05C0682FCE0178
:101400000E94D80AF6CFCE01DF91CF911F910F91A4
:101410000895FC01808191810C943B0ECF93DF9362
:10142000EC0188819981009711F00E943B0E19828E
:1014300018821D821C821B821A82DF91CF9108952F
:101440000F931F93CF93DF93EC018B016F5F7F4F5F
:10145000888199810E94CA0E009731F09983888310
:101460001B830A8381E001C080E0DF91CF911F914F
:101470000F910895CF93DF93EC0188819981892B97
:1014800029F08A819B818617970760F4CE010E941C
:10149000200A882341F08C819D81892B19F4E881F1
:1014A000F981108281E0DF91CF910895EF92FF9250
:1014B0000F931F93CF93DF93EC017B018A01BA0155
:1014C0000E943A0A811104C0CE010E940E0A07C090
:1014D0001D830C83B701888199810E949D0FCE01E5
:1014E000DF91CF911F910F91FF90EF900895FC0134
:1014F0001182108213821282158214826115710585
:1015000059F0FB0101900020E9F7AF01415051096A
:10151000461B570B0C94560A0895CF93DF93EC01AA
:101520006115710561F0FB0101900020E9F7AF0141
:1015300041505109461B570B0E94560A02C00E9497
:101540000E0ACE01DF91CF910895EF92FF920F9393
:101550001F93CF93DF93EC017B010C811D816115FB
:10156000710511F480E016C04115510591F0040F8A
:10157000151FB8010E943A0A8823A1F328813981F6
:101580008C819D81B701820F931F0E949D0F1D8347
:101590000C8381E0DF91CF911F910F91FF90EF902D
:1015A0000895FB0144815581608171810C94A50AE5
:1015B000CF93DF9300D0CDB7DEB769831A8241E0C5
:1015C00050E0BE016F5F7F4F0E94A50A0F900F9001
:1015D000DF91CF9108950F931F93CF93DF93EB018A
:1015E00041155105E9F02097D9F0FC01648175811E
:1015F00026173707A0F4621B730B8A0101501109EB
:101600006017710708F48B01FC0160817181620F22
:10161000731FA801CE010E94A40FC00FD11F188212
:10162000DF91CF911F910F91089508950E94D80BDB
:101630000E94150B0E948002CDE0D7E00E9433018A
:101640002097E1F30E940D07F9CF1F920F920FB67A
:101650000F9211242F933F938F939F93AF93BF9338
:101660008091BC039091BD03A091BE03B091BF03D4
:101670003091BB0323E0230F2D3720F40196A11DE9
:10168000B11D05C026E8230F0296A11DB11D2093B0
:10169000BB038093BC039093BD03A093BE03B093A0
:1016A000BF038091C0039091C103A091C203B09188
:1016B000C3030196A11DB11D8093C0039093C10384
:1016C000A093C203B093C303BF91AF919F918F9139
:1016D0003F912F910F900FBE0F901F9018952FB72D
:1016E000F8946091BC037091BD038091BE0390910A
:1016F000BF032FBF08953FB7F8948091C003909126
:10170000C103A091C203B091C30326B5A89B05C035
:101710002F3F19F00196A11DB11D3FBF6627782FFD
:10172000892F9A2F620F711D811D911D42E0660F56
:10173000771F881F991F4A95D1F708958F929F921E
:10174000AF92BF92CF92DF92EF92FF926B017C013A
:101750000E947B0B4B015C01C114D104E104F10434
:10176000F1F00E94330D0E947B0B681979098A09F8
:101770009B09683E73408105910570F321E0C21A10
:10178000D108E108F10888EE880E83E0981EA11CBC
:10179000B11CC114D104E104F10429F7DDCFFF909D
:1017A000EF90DF90CF90BF90AF909F908F90089573
:1017B000789484B5826084BD84B5816084BD85B52C
:1017C000826085BD85B5816085BDEEE6F0E08081F3
:1017D00081608083E1E8F0E0108280818260808314
:1017E000808181608083E0E8F0E080818160808397
:1017F000E1EBF0E0808184608083E0EBF0E08081C9
:1018000081608083EAE7F0E080818460808380816A
:101810008260808380818160808380818068808312
:101820001092C10008951F93CF93DF93182FEB01FF
:1018300061E00E949B0C209711F460E004C0CF3F50
:10184000D10539F461E0812FDF91CF911F910C9484
:10185000D40CE12FF0E0E859FF4FE491E330F9F0C8
:1018600048F4E130B9F0E230A1F584B5806284BD7E
:10187000C8BD34C0E730E9F0E83019F1E43049F58B
:1018800080918000806280938000D0938B00C09311
:101890008A0024C084B5806884BDC7BD1FC0809104
:1018A0008000806880938000D0938900C093880076
:1018B00015C08091B00080688093B000C093B300E1
:1018C0000DC08091B00080628093B000C093B400DE
:1018D00005C0C038D1050CF0B5CFAFCFDF91CF91A7
:1018E0001F910895833081F028F4813099F082307F
:1018F000A1F008958730A9F08830B9F08430D1F490
:10190000809180008F7D03C0809180008F778093CD
:101910008000089584B58F7702C084B58F7D84BD23
:1019200008958091B0008F7703C08091B0008F7DC3
:101930008093B0000895CF93DF9390E0FC01E458CA
:10194000FF4F2491FC01E057FF4F8491882349F118
:1019500090E0880F991FFC01E854FF4FA591B491C6
:1019600082559F4FFC01C591D4919FB7611108C06A
:10197000F8948C91209582238C93888182230AC0CD
:10198000623051F4F8948C91322F309583238C93EC
:101990008881822B888304C0F8948C91822B8C934D
:1019A0009FBFDF91CF9108950F931F93CF93DF9344
:1019B0001F92CDB7DEB7282F30E0F901E859FF4F6D
:1019C0008491F901E458FF4F1491F901E057FF4F5A
:1019D00004910023C9F0882321F069830E94720CCE
:1019E0006981E02FF0E0EE0FFF1FE255FF4FA59158
:1019F000B4919FB7F8948C91611103C01095812325
:101A000001C0812B8C939FBF0F90DF91CF911F91CD
:101A10000F910895CF93DF93282F30E0F901E85913
:101A2000FF4F8491F901E458FF4FD491F901E05739
:101A3000FF4FC491CC2391F081110E94720CEC2FC6
:101A4000F0E0EE0FFF1FEC55FF4FA591B4912C91E4
:101A50002D2381E090E021F480E002C080E090E05E
:101A6000DF91CF910895089597FB072E16F4009407
:101A700007D077FD09D00E94890D07FC05D03EF400
:101A8000909581959F4F0895709561957F4F08952A
:101A9000A1E21A2EAA1BBB1BFD010DC0AA1FBB1F72
:101AA000EE1FFF1FA217B307E407F50720F0A21BE4
:101AB000B30BE40BF50B661F771F881F991F1A9451
:101AC00069F760957095809590959B01AC01BD017B
:101AD000CF010895052E97FB1EF400940E94810DFE
:101AE00057FD07D00E94480D07FC03D04EF40C941C
:101AF000810D50954095309521953F4F4F4F5F4F49
:101B0000089590958095709561957F4F8F4F9F4F69
:101B10000895AA1BBB1B51E107C0AA1FBB1FA61734
:101B2000B70710F0A61BB70B881F991F5A95A9F786
:101B300080959095BC01CD010895EE0FFF1F059093
:101B4000F491E02D0994CF93DF938230910510F446
:101B500082E090E0E091C603F091C70320E030E01E
:101B6000A0E0B0E0309739F1408151814817590722
:101B7000B8F04817590771F482819381109729F0C2
:101B800013969C938E9312972CC09093C7038093C7
:101B9000C60327C02115310531F04217530718F04D
:101BA000A901DB0101C0EF019A01BD01DF01028043
:101BB000F381E02DD7CF21153105F9F0281B390B22
:101BC0002430310580F48A819B816115710521F0F3
:101BD000FB019383828304C09093C7038093C60361
:101BE000FE01329644C0FE01E20FF31F81939193F0
:101BF00022503109398328833AC02091C40330919F
:101C0000C503232B41F4209102013091030130934D
:101C1000C5032093C40320910001309101012115D7
:101C2000310541F42DB73EB74091040150910501B3
:101C3000241B350BE091C403F091C503E217F307B1
:101C4000A0F42E1B3F0B2817390778F0AC014E5F2C
:101C50005F4F2417350748F04E0F5F1F5093C503A1
:101C60004093C4038193919302C0E0E0F0E0CF0180
:101C7000DF91CF910895CF93DF93009709F487C048
:101C8000FC01329713821282C091C603D091C70320
:101C9000209781F420813181280F391F8091C4035E
:101CA0009091C5038217930779F5F093C503E093EC
:101CB000C4036DC0DE0120E030E0AE17BF0750F472
:101CC00012964D915C9113979D014115510509F1B3
:101CD000DA01F3CFB383A28340815181840F951F32
:101CE0008A179B0771F48D919C911197840F951F12
:101CF00002969183808312968D919C911397938382
:101D000082832115310529F4F093C703E093C603BC
:101D10003EC0D9011396FC93EE9312974D915D91BD
:101D2000A40FB51FEA17FB0779F480819181840F16
:101D3000951F0296D90111969C938E93828193816F
:101D400013969C938E931297E0E0F0E08A819B813A
:101D5000009719F0FE01EC01F9CFCE01029628811F
:101D60003981820F931F2091C4033091C503281736
:101D7000390769F4309729F41092C7031092C6030B
:101D800002C013821282D093C503C093C403DF91B3
:101D9000CF910895A0E0B0E0E0EDFEE00C94B70F25
:101DA000EC01CB01209719F40E94A30DB8C0FE01ED
:101DB000E60FF71F9E0122503109E217F30708F4DE
:101DC000ACC0D9010D911C91119706171707B8F0F7
:101DD0000530110508F49FC0A80144505109461769
:101DE000570708F498C002501109061B170B0193FE
:101DF00011936D937C93CF010E943B0E8CC05B01CD
:101E0000A01AB10A4E01800E911EA091C603B09196
:101E1000C703612C712C60E070E0109709F449C091
:101E2000A815B905C9F5ED90FC901197670142E03E
:101E3000C40ED11CCA14DB0478F147018A189B0830
:101E4000640142E0C40ED11C1296BC901297139606
:101E5000AC91B5E0CB16D10440F0B282A38391825D
:101E60008082D9018D939C9309C00E5F1F4F0E0D88
:101E70001F1DF90111830083EB2DFA2F61157105E8
:101E800031F0DB011396FC93EE93129744C0F0936C
:101E9000C703E093C6033FC06D917C91119766160E
:101EA000770608F43B01BD0112960D90BC91A02D60
:101EB000B4CF6091C4037091C50368157905E9F446
:101EC00068167906D0F44091000150910101411546
:101ED000510541F44DB75EB7609104017091050161
:101EE000461B570BE417F507C0F4F093C503E093C6
:101EF000C403F901918380830EC00E94A30D7C016D
:101F0000009759F0A801BE010E94940FCE010E94D3
:101F10003B0EC70104C0CE0102C080E090E0CDB707
:101F2000DEB7EEE00C94D30FFB01DC0102C00190A0
:101F30000D9241505040D8F70895FB01DC0101900B
:101F40000D920020E1F70895FB01DC014150504063
:101F500048F001900D920020C9F701C01D92415038
:101F60005040E0F708952F923F924F925F926F9208
:101F70007F928F929F92AF92BF92CF92DF92EF9219
:101F8000FF920F931F93CF93DF93CDB7DEB7CA1B9A
:101F9000DB0B0FB6F894DEBF0FBECDBF09942A88C5
:101FA000398848885F846E847D848C849B84AA846D
:101FB000B984C884DF80EE80FD800C811B81AA81FA
:101FC000B981CE0FD11D0FB6F894DEBF0FBECDBFC5
:101FD000ED01089510E0C6ECD0E004C0FE010E94BF
:0E1FE0009F0D2296C83CD107C9F7F894FFCF99
:101FEE000000C80380000100000052656365697639
:101FFE0065643A20004C696E6B206F66666C696E84
:10200E00652E20526573657420746F20737461722F
:10201E0074206F7665722E2E2E0053656E64696E77
:10202E006720636F6D6D616E6420746F2072656DD5
:10203E006F74652E2E2E000A415141412B673D3D96
:10204E000A0053656E64696E6720636F6D6D616E15
:10205E00643A20002B2B2B0041542B434950434C08
:10206E004F53450041542B43495053544152543D14
:10207E0022544350222C223139322E3136382E3111
:10208E002E313030222C32330041542B4349504DE7
:10209E004F44453D310041542B43495053454E4426
:1020AE000054696D656F757420656E61626C696E42
:1020BE0067205246206C696E6B2E205265736574D4
:1020CE0020746F207374617274206F7665722E2E79
:1020DE002E00415445300041542B43574D4F44453B
:1020EE003D330041542B43574A41503D22486F61C6
:1020FE006E222C22303435323334363836392200C3
:10210E0041542B434946535200496E697469616CC0
:10211E00697A696E67206C696E6B2E2E2E00000038
:10212E000000D103CA083C04B003240423040000B9
:10213E0000005E07CA08E006F906EB063C070D0A2A
:0E214E00006E616E00696E66006F76660000BE
:00000001FF
